:100000000C942A000C9434000C9434000C943400AA
:100010000C9434000C9434000C9434000C94340090
:100020000C9434000C9434000C9434000C94340080
:100030000C9434000C9434000C9434000C94340070
:100040000C9434000C9434000C9434000C94340060
:100050000C94340011241FBECFE5D8E0DEBFCDBF25
:100060000E946D010C9495010C940000833271F094
:1000700030F48C3049F0843159F464BB08958233F4
:1000800011F461BB089508956ABB089567BB089594
:100090000895833271F030F48C3049F0843159F492
:1000A00065BB0895823311F462BB089508956BBB5C
:1000B000089568BB08950895833269F038F48C3050
:1000C00069F0843109F493B3892F08958233E1F7FD
:1000D00090B3892F089596B3892F089599B3892FE6
:1000E00008958332B9F1A8F48C3029F1843109F0F4
:1000F00068C0413009F45BC041111BC024B381E0EA
:1001000090E001C0880F6A95EAF78095822384BB4E
:100110000895823379F4413061F141110AC021B36D
:1001200081E090E001C0880F6A95EAF7809582230C
:1001300081BB08950895413031F14111FACF2AB3BE
:1001400081E090E001C0880F6A95EAF780958223EC
:100150008ABB0895413009F14111EBCF27B381E00B
:1001600090E001C0880F6A95EAF78095822387BBEB
:10017000089581B321E030E001C0220F6A95EAF7CB
:10018000822B81BB08958AB321E030E001C0220FA9
:100190006A95EAF7822B8ABB089587B321E030E0A5
:1001A00001C0220F6A95EAF7822B87BB089584B3BA
:1001B00021E030E001C0220F6A95EAF7822B84BB70
:1001C000089508958332B9F1A8F48C3029F184316F
:1001D00009F068C0413009F45BC041111BC025B370
:1001E00081E090E001C0880F6A95EAF7809582234C
:1001F00085BB0895823379F4413061F141110AC021
:1002000022B381E090E001C0880F6A95EAF78095FB
:10021000822382BB08950895413031F14111FACF14
:100220002BB381E090E001C0880F6A95EAF78095D2
:1002300082238BBB0895413009F14111EBCF28B3E4
:1002400081E090E001C0880F6A95EAF780958223EB
:1002500088BB089582B321E030E001C0220F6A9587
:10026000EAF7822B82BB08958BB321E030E001C016
:10027000220F6A95EAF7822B8BBB089588B321E0A1
:1002800030E001C0220F6A95EAF7822B88BB0895FF
:1002900085B321E030E001C0220F6A95EAF7822B96
:1002A00085BB089508958332A1F078F48C3099F0DD
:1002B000843149F485B390E002C0959587956A959D
:1002C000E2F7982F9170892F08958233E1F782B376
:1002D000F2CF88B3F0CF8BB3EECF6FEF8CE00E94FC
:1002E0003600C0E041E06C2F8CE00E94E2002FEF6E
:1002F00089E698E1215080409040E1F700C000007D
:10030000CF5FC83079F7C7E040E06C2F8CE00E94E7
:10031000E2002FEF89E698E1215080409040E1F71C
:0E03200000C00000C15080F7DCCFF894FFCF82
:00000001FF
